:20000000FC2C0020C90E0000FD0E0000F70C0000CF0D0000CF0D0000CF0D0000000000001F
:20002000000000000000000000000000CF0D0000CF0D000000000000CF0D0000CF0D000050
:20004000CF0D0000CF0D0000CF0D0000CF0D0000CF0D0000CF0D0000CF0D0000CF0D0000C0
:20006000CF0D0000CF0D0000CF0D0000CF0D0000CF0D0000CF0D0000CF0D0000CF0D0000A0
:20008000CF0D0000CF0D0000CF0D0000CF0D0000CF0D0000CF0D0000CF0D0000CF0D000080
:2000A000CF0D0000CF0D0000CF0D0000CF0D0000CF0D0000CF0D0000CF0D0000CF0D000060
:0800C000CF0D0000CF0D000080
:2000C80010B5ADF1180D039102902E48006840690146062088472B480068406B01460620B4
:2000E80088470128F7D127480068C06901464FF4A060884700F004F900F0C6F80028FBD051
:2001080020480068C06901464FF48070884700F0F7F800F0B9F80028FBD04FF080400F21F3
:2001280000F0CEF84FF08040032100F0E0F816480068029A00680092082101911349002380
:2001480004464FF080400022A047114800680399406C13224FF0FF33044600914FF08040BC
:200168001221A0474FF0804000F0B6F806480068006904A902464FF0804090470028F5D1E8
:2001880006B010BDB8010010C4010010006CDC02B401001008B514480068006A01464FF4B2
:2001A8008070884700F0ACF800F06EF80028FBD00D480068006A01464FF4A060884700F02B
:2001C8009FF800F061F80028FBD007480068806901460620884704480068406B014606209C
:2001E80088470228F7D108BDB80100100EB501910090019800B31148006880680021024665
:200208004FF08040904710B94FF0FF3015E00B480068C06802A902464FF0804090479DF893
:200228000800009908700198401E01900098401C009001980028DED100200EBDC401001061
:200248000EB5019100900198C8B10E48009900680978406802464FF0804090470948006848
:20026800C06802A902464FF0804090470198401E01900098401C009001980028E5D10020E2
:200288000EBDC046C4010010054801680020890801D3012100E0002101B101207047C046C2
:2002A8002820084008B5054800680069694602464FF0804090470028F5D108BDC401001076
:2002C800ADF1080D019100900098019A143001689143016002B07047ADF1080D00900098E8
:2002E800001D016841F00201016002B07047ADF1080D0191009001980099086202B0704798
:200308000149012008607047282008602DE9F041424C474D8046C8F38140401E02D0401E62
:200328002AD025E0284620300168880C20D24FF4804020603A48D0F802204B0AC1F30337D7
:2003480003F0800322F08F02134347EA0302C0F80220D0F801300E1266F30303C0F80130B5
:20036800026801F0E70722F0E70247EA020102E04FF00041204601602A4E06F108000068F5
:20038800C0F3C0070FB94020A0624FF40070206400F0FEFB40F0300084F8C800C8F3815061
:2003A80038B3401E03D0401E1ED002211DE0012000F072FB07460420394600F06FFA0420C2
:2003C80000F06AFB8742FAD1366826F07F4000F0F3FA15480068036807214FF06022300E85
:2003E80098474FF4806020600321042000F056FA06E00420012100F051FA0C4800F0DCFA6A
:20040800284600680B4947F6180700F03F0084F8CB0F094E0F803068BDE8F08140A00C4009
:200428000A600840A83F0050B4010010BD3786006C13005070B00C402C2009407CB5044641
:20044800084600F0CFF9344E02461821304600F0CBFA00F03DFB40F2FF32002380B22C2133
:200468000090304600F064FA00F09AFB1C210246304600F0B9FA00F01DFB02461421304602
:2004880000F0B2FA00F04AFB02461021304600F0ABFA204600F070F902460C21304600F065
:2004A800A3FA204600F022FB1C4D400040F020002870204600F026FB40F0100028702046DE
:2004C80000F0BEFA02462821304600F08DFA204600F030FB400040F06000E870204600F0EF
:2004E80035FBC00040F0800005F8080C204600F039FB800040F47C40A5F89300204600F0C3
:2005080089FA02460821304600F06EFA4FF48000A5F2091108607CBD00A00C4049A10C40DA
:20052800294A2DE9F04180460126284816600768002FFCD0294C2A4FC020443C206007F1F6
:20054800080001682348890804D20168090C41F0F00100E072211E4D85F85412002111635A
:200568008768384600F094F840463946FFF766FF1C48B038816D40F20F226FF31F418A42FF
:2005880012D901680068C1F30363C0F3034003B15B1E072805D006280EBF0720801C00F0A8
:2005A8000F0043EA001028703846FFF7AFFE0E4814380068C1680220884740202060064FD5
:2005C8003E60BDE8F081C046101009409402224302600840AC3F00509404604244600C40E6
:2005E800A83F00506C130050B4010010264838B550380468B4F1FF3F08BF002400F0BEFA63
:2006080022481749002510380560012008601549086000F01BF91448006820B1134800688B
:200628002046FFF77DFF124812490560124C0A686FF35B4244EA0200086010490868C0F3DD
:200648000130012806D10A680D48104040F400320A6008600B4908680028FCD138BDC0465E
:200668005C600C400822044380012843000120438C21084048200340000039010400094082
:20068800FFFFFCFC0C0068426C130050940460420246184808B50068C0F3046000F088FA47
:2006A80000EB2270401C162805DA10F10A0FB8BF6FF0090000E015200F49104B00F01F006C
:2006C80040F4F85008801868800803D20C490020086001E042F040620A49D00E930E80F05D
:2006E800010000F00100086083F0010000F00100886008BDB81200506E620840000009400B
:2007080094042A43000020431A4898B5D0F8781203680F0F03F0FF03802B28BF002300F045
:20072800E3F84FF0FF3478B1401E07D0401E012802D9801E19D01AE0BFB118E0381C12D085
:20074800801E14D1143311E03846401E0BD0801E07D0001F03D0401E09D1163306E0152418
:2007680005E0142403E00A2401E00A335CB2204698BDC046A010005038B504461848174D5B
:20078800C03002686B68C2F30351C2F303405B0813D22B681D0511EB257103D41029A8BF1D
:2007A8000F2100E000211B0410EB237303D4102BA8BF0F2300E00023184640EA011002F413
:2007C8007F4102F0FF03222C41EA004143EA010024BF02F08042104338BDC046AC3F005055
:2007E800B81200500146184880B5983000688A0CC0F38367C0F38F2022D241F307210029BD
:200808000BD54A420021400805D17F0806BF0127381C4FF6FF70521EF5D1002910DD4FF618
:20082800FF72400040F00100824207D2780040F001070F2F92BF01200F27101C491EF0D147
:2008480040EA074080BDC046B81200500F4908680028FCD1104A131D0D49186820F0030092
:2008680001430C480068C0080CD2106810F0030F0AD041F003001860106800F00300032824
:20088800FAD101E041F00101196070470C00684204000020B03F0050004003407CB5114D16
:2008A80004460E46600807D3B0B20021009001220B46284600F03CF8A00807D3B0B20090C3
:2008C800002102220123284600F032F8E00807D3B0B2009000210C220223284600F028F879
:2008E8007CBDC04600A00C40104A1068C0F30F314BF69A10884207D111680B20B0EB117FA4
:2009080014BF0020042070472430884208BF01200BD04BF64130884208BF032005D021388C
:2009280088420CBF02204FF0FF30704718130050B0B500EB4100102B04AF00F5007403D39A
:20094800103B00F50174120C3D889D4045EA024500F035F9002700B90127064A3946106837
:200968000028FCD025600120106009B100F02DF9B0BDC04600800C40F8B51E4614460D18C6
:20098800102E02D3103EAD1C240C00F018F9002700B9012707483B460768002FFCD02D88FD
:2009A800012101600BB100F010F92C403441A0B2F8BDC04600800C400949020480B5120C92
:2009C80041F8082CC0F3074041F8040C0120086004480768002FFCD00020086080BDC04655
:2009E80044600C4084088C43B0B515460C1800F0E6F8002700B90127054A3946106800287C
:200A0800FCD025600120106009B100F0DEF8B0BD00800C40202838BF07480CD307480C303B
:200A2800016808038215920500F47C1001F00F01104340EA0130704700803F408C13005038
:200A4800202838BF002008D304480C300068C10C01F44071C0F38450084370478C13005079
:200A680008B5044B1B689B699847034A0021116008BDC046A801001084046042044908B565
:200A8800096849698847034A0021116008BDC046A801001084046042042807BF4FF0C0429C
:200AA8001D234FF080521C2301483421FFF764BF00A00C400548BC3001680348084001F0D5
:200AC8007C4108437047C046FCFCFC00B81200500549983108680968C0F3870001F0030114
:200AE80040EA01207047C046B8120050222804D303480068C0F30070704701207047C04640
:200B08008C130050222804D303480068C0F34070704701207047C0468C1300500448B830EF
:200B2800006800F47C010004000C08437047C046B8120050202805D303480C300068C0F3E0
:200B480001507047002070478C130050222804D303480068C0F3C060704700207047C04684
:200B68008C130050222804D303480068C0F34550704700207047C0468C13005008B5FFF72C
:200B8800B3FE18B9FFF7C0FD162800DAFEE708BD02480068C0F3C1407047C0468C13005044
:200BA8000248C4300068C0F30D007047B812005001461628A8BFA0F1200108467047EFF371
:160BC800108072B6704700207047EFF3108062B6704700207047B9
:200BE000002A4AD05FEA000C8B071CD1830722D1102A08D370B4103A78C978C0103AFBD24D
:200C000070BC103238D0042A2CD3082A05D30C2A24BF08C908C008C908C008C908C09207AA
:200C20002AD0920F22E00B780370491C401C521E22D08B07F7D1C30714D18307D8D0121F92
:200C400012D308C903801B0C4380001D121FF8D20AE008C903701B0A43701B0A83701B0A16
:200C6000C370001D121FF4D2121D05D00B780370491C401C521EF9D1604670470022134660
:200C80000A46194671B510F0030F0BD0002A82BF00F8011BB2F1010210F0030FF6D1002A6A
:200CA00008BF71BD11F0FF0141EA0121042A18D341EA0141082A0FD30E46102A08D30C469C
:200CC0000D46B2F10F0312F00F0272C0103BFCD812F0080F18BF42C012F0040F18BF40F892
:200CE000041B12F0020F18BF20F8021B12F0010F18BF017071BDFEE71348B0B5B0F1FF3FAA
:200D000001D000F065F8114D1148A84210D01148114CA0420CD0001BC71054F8040B10F86B
:200D2000011B55F8212054F8041B90477F1EF4D10A4D0B4CA54205D002E054F8040B8047F7
:200D4000A542FAD1B0BDC046FFFFFFFF400F00004C0F0000680F0000580F000000000000EA
:200D6000000000002DE9F041054615F8017B90460E461CE0B8F1000F05F101050BD0FF2C78
:200D800009D8022015F8011B401E41EA0424F9D101E0042C02D315F8011B00E039463046C8
:200DA0002246FFF76FFFA61901E006F8010B15F8010B8742F9D115F8014B002CE9D115F8C5
:200DC000010B2C7800022418D4D1BDE8F081FEE7F8B506460F4D104F7388002417E0A0001B
:200DE00000EBC400321851689068D26852B9AF420BD00A7855F822200346491C08461946CC
:200E0000904701E0FFF7ECFE7388641CA4B2A342E5DCF8BD400F00004C0F000000BF7047EE
:200E200008B5FFF7FBFFFEE738B50546094800688047094C201D006810B101462846884729
:200E4000206800B18047054800688047FFF7E8FF38BDC046141000201C1000201810002066
:200E60000B4885460B4885446F4607208743BD4609486F46076000F03FF8002801D0FFF70C
:200E80003BFF00F00BF80120FFF7CEFFFEE7C046FC2B002000010000281000200449B1F1C7
:200EA000FF3F07BF0020011C0868091D1EF0D8BAFFFFFFFF0349086070470249091F086079
:200EC000704770471810002008B5FFF793FBFFF7C7BFFFF710FF08BDD0F80320C31D0846BC
:1E0EE0001946FFF77DBED0F8032008460021FFF7C9BE0122FFF736BF01207047FEE7C2
:200F000000002000C215000000001000C214000000000800EF12000000000400EF110000E7
:0E0F2000000000000000000090FFFF0005062A
:200F30000001C30E0000C30E0112000100000000F30E0000D90E0000E70E0000000000000D
:180F50000200000014100000300F000014100020500F00000000002061
:020000040001F9
:18F000004FF0200383F3118872B6024B9D4600F0B5B9C046F82C002087
:20F0180000B5ADF1140DADF802108DF800000020ADF804009DF80000010343484FF4805226
:20F03800E1F7D2FD9DF800008DF807003F480088411200EB915080128DF808003B49BDF86A
:20F0580002009DF808300988421000EB927001EBA001A1EB83218800ADF80A009DF8081058
:20F078009DF8070040188DF808009DF807008DF8060041E09DF807009DF80610884203D1CA
:20F09800BDF80200001D00E00020ADF80C000EE0BDF80C10244ABDF80400515C00F01DF93A
:20F0B800ADF80400BDF80C00401CADF80C00BDF80C00B0F5805F0BDA9DF808009DF806104F
:20F0D8008842E5DCBDF80A00BDF80C108842DFDC9DF808009DF80610884208D09DF80600F3
:20F0F800401C010310484FF48052E1F76DFD9DF80600401C8DF806009DF808009DF806101F
:20F118008842B7DABDF80400002100F0E6F8ADF80400BDF80400002100F0DFF8ADF80400E1
:20F13800BDF8040005B000BD00000020061000200EB500F0BDF9B0F1FF3F58D04FF4F02073
:20F1580000900098B0F5F22F4FD800982849102200F05CF9264800884FF6FF7181423CD088
:20F1780023480088002838D02248214900880988884232D120480078FF282ED11F480078B5
:20F19800012802D10020019007E01C480078022823D14FF400300190FFE71A481849008894
:20F1B800098882000198890000F02EF815480088C0F393208DF808000D4A9DF808000021FF
:20F1D80000F0F0F80028D9D00B498020087000980749102200F024F9FFE7009800F5805098
:20F1F80000900098B0F5F22FAFD900F06AF90EBD00100020021000200F1000200E10002084
:20F21800061000200C10002000B5ADF11C0D0292019100900298000B03900299019840186E
:20F23800401E000B04900198C01C0190019880080190029810F0030F02D04FF0FF304AE0EB
:20F2580004980399884202D304981E2802D94FF0FF3040E00498039988423BD34FF4806041
:20F27800ADF8180003990498884203D1BDF80400ADF81800BDF80C0000F0ACF8E0B14FF048
:20F29800FF3028E0009805A9042200F0BFF810B14FF0FF301FE00298059900F0A9F810B154
:20F2B8004FF0FF3017E00098001D00900298001D02900198401E0190BDF81800411E002867
:20F2D800ADF81810DEDC0398401C0390049803998842C3D2002007B000BDADF1100D8DF89A
:20F2F8000210ADF8000041F22100ADF8040000208DF806009DF8060008282FDABDF800000E
:20F31800000C01D3012000E000208DF80800BDF800004000ADF800009DF80200000A05D334
:20F33800BDF8000040F00100ADF800009DF8080030B1BDF80010BDF804004840ADF8000001
:20F358009DF806009DF80210401C8DF8060048008DF802009DF806000828CFDBBDF8000073
:20F3780004B070470EB502920191009000F0A0F8B0F1FF3F13D000980199029AFFF744FF40
:20F3980000F09FF806490420086000F06DF800F065F8002000F04EF8E1F70FFCFEE70EBD68
:20F3B800102108400EB50192ADF802108DF800009DF80000BDF80210FFF722FE019909888D
:20F3D800884205D10198019900884880012000E000200EBD08B5ADF80000BDF800000003EC
:20F3F800E1F744FB08B9002001E04FF0FF3008BD0EB5019100900099042201A8E1F728FBA1
:20F4180008B9002001E04FF0FF300EBD0EB502920191009000980299019A00F02BF80EBDB4
:20F438000EB502920191009000980299019A00F030F80EBDADF1080D0090024900980860FC
:20F4580002B070470000084008B5FFF771FE41F210004168D0F800D0084708BD01490120BE
:20F4780008607047000100430149012008607047040100430EB50292019100900098019994
:20F49800029A00F080F808B1002001E04FF0FF300EBD0EB502920191009000980199029A16
:20F4B80000F014F808B1002001E04FF0FF300EBD08B500F027F908B1002001E04FF0FF3050
:20F4D80008BD08B500F0C8F908BD000000B5ADF11C0D0292019100900198002850D000F019
:20F4F800EBF80490049808B100204AE000F06CF90490049808B1002043E0009800F0FF00D6
:20F51800C0F58070059001990598884201D90198059002208DF80C000098C0F307408DF8C6
:20F538000D000098C0F307208DF80E00009800F0FF008DF80F0000990598401800900198CF
:20F558000599401A019000F094F903A80421E0F76FFE18B100F088F9002012E002980599F5
:20F57800E0F766FE18B100F07FF9002009E0029905984018029000F077F901980028AED13C
:20F59800012007B000BD00B5ADF1140D02920191009000F091F80490049808B100202AE008
:20F5B80003208DF80C000098C0F307408DF80D000098C0F307208DF80E00009800F0FF00CF
:20F5D8008DF80F0000F055F903A80421E0F730FE18B100F049F900200DE002980199E0F759
:20F5F800FDFD049000F040F9049A0020002102B9012101B1012005B000BD000008B500F08E
:20F61800A5F808B9002023E013481249086011E010481249006809780079884206D10D4837
:20F638000F49006809784079884208D009490868083008600748006800680028E8D1054867
:20F65800006802680021002002B1012101B1012008BDC04624100020000F00001010002069
:20F67800111000200EB5AB208DF8000000F001F901216846E0F7DCFD0022002100B9012196
:20F6980001B101228DF8012000F0EEF89DF8010078B1C820ADF80400BDF80400411E002871
:20F6B800ADF80410F8D100F007F810B100208DF801009DF801000EBD0EB5114800788DF8E0
:20F6D800000000F0D6F8E0F7E5FD00F0CDF800F0D0F868460121E0F7ABFD02A80121E0F73C
:20F6F8007DFD019000F0C0F8019810B16FF0010004E09DF808004008E9D200200EBDC04610
:20F718002C0F000008B50F481121E0F7D1FC0E480068C06B01460E20884700F0A5F8FFF7FC
:20F73800A1FF8DF800009DF8000018B1FFF766FF8DF800009DF8000008B900F08DF89DF8EE
:20F75800000008BD00093D00B40100100EB50F480068019000F08DF8042101A8E0F768FD2F
:20F778000090009818B100F07FF800200DE008480221E0F733FD009000F076F8009A0020EA
:20F79800002102B9012101B101200EBD280F00001010002008B500208DF800009DF8000047
:20F7B8000A280DDAFFF72AFF08B900200AE09DF80000401C8DF800009DF800000A28F1DB25
:20F7D8004FF0FF3008BD00000EB50A4800788DF8000000F04EF801216846E0F729FD019038
:20F7F80000F042F8019810B16FF0020000E000200EBDC0462D0F000008B5B9208DF80000E4
:20F8180000F037F801216846E0F712FD0022002100B9012101B101228DF8012000F024F856
:20F838009DF8010008BD0000ADF1080D00900349009A01209040086002B07047A020024068
:20F85800ADF1080D00900349009A01209040086002B070479020024008B5FFF7CDFFFFF73E
:1CF8780099FFE0F78FFC08BD08B50E20FFF7E8FF08BD08B50E20FFF7D7FF08BDAC
:20FFA80000008001100082FFFDFF58003AFFBFF3FFFFFFFFFFFFFFFFFFFFFFFFFFFFFFFFF8
:20FFC800FFFFFFFFFFFFFFFFFFFFFFFFFFFFFFFFFFFFFF00FFFFFFFF00FFFFFFC500C5FFAA
:18FFE800000000FF00000000FFFFFFFFFFFFFFFFFFFFFFFFFFFFFFFF12
:00000001FF
